:040000006FA010726B
:100004000000000000000000E0050000E40500001E
:10001400000000001EAF000000000000000000000F
:100024001EAF00001EAF0000000000000000000032
:100034001EAF0000000000001EAF00000000000022
:100044001EAF00001EAF00001EAF00001EAF000078
:100054001EAF00001EAF00001EAF00001EAF000068
:100064001EAF00001EAF00001EAF00001EAF000058
:100074001EAF00001EAF00001EAF00001EAF000048
:100084001EAF00001EAF00001EAF00001EAF000038
:100094001EAF00001EAF00001EAF00001EAF000028
:1000A4001EAF00001EAF00001EAF00001EAF000018
:1000B4001EAF00001EAF00001EAF00001EAF000008
:1000C4001EAF00001EAF00001EAF00001EAF0000F8
:1000D4001EAF0000A4BD00001EAF00001EAF000054
:1000E4001EAF00001EAF00001EAF00001EAF0000D8
:1000F4001EAF00001EAF00001EAF00001EAF0000C8
:100104001EAF00001EAF00001EAF00001EAF0000B7
:100114001EAF00001EAF00001EAF00001EAF0000A7
:100124001EAF00001EAF00001EAF00001EAF000097
:100134001EAF00001EAF00001EAF00001EAF000087
:100144001EAF00001EAF00001EAF00001EAF000077
:100154001EAF00001EAF00001EAF00001EAF000067
:100164001EAF00001EAF00001EAF00001EAF000057
:100174001EAF00001EAF00001EAF00001EAF000047
:100184001EAF00001EAF00001EAF00001EAF000037
:100194001EAF00001EAF00001EAF00001EAF000027
:1001A400000000000000000000000000000000004B
:0C01B4000000000000000000000000003F
:1001C000397101436EC619A0397141536AC866CAB4
:1001D00062CC5ECE19A0397101535AD056D252D496
:1001E0004ED64AD826DA22DC06DE3301614082820E
:1001F00041114AC026C222C406C68282B24D4101C4
:10020000024D924C224CB24B4101024B924A224A7F
:10021000B2494101024992442244B24041018280E4
:100220003D432A876373C3029377F700BDEFADE5C3
:10023000937606FF3D8ABA960CC34CC30CC74CC7D5
:100240004107E36BD7FE11E28280B306C3408A0602
:100250009702000096966780A6002307B700A306C2
:10026000B7002306B700A305B7002305B700A30412
:10027000B7002304B700A303B7002303B700A3020A
:10028000B7002302B700A301B7002301B700A30002
:10029000B7002300B700828093F5F50F9396850091
:1002A000D58D93960501D58D61B79396270097025A
:1002B000000096968682E78086FA9680C1171D8F89
:1002C0003E96E374C3F8A5B72320150040C104C5CA
:1002D0002326250123283501232A4501232C5501F6
:1002E000232E6501232075032322850323249503F0
:1002F0002326A5032328B503232A2502014582804E
:1003000083200500404104450329C50083290501D8
:10031000032A4501832A8501032BC501832B05028E
:10032000032C4502832C8502032DC502832D050372
:100330000321450313B515002E9582803367B50060
:10034000FD530D8B79E7B7877F7F9387F7F71041D0
:100350009441B372F6003363F600BE92B3E26200DA
:100360006397720C6318D6065041D441B372F600FD
:100370003363F600BE92B3E262006398720A631BB5
:10038000D60410459445B372F6003363F600BE926E
:10039000B3E262006391720A631ED6025045D445EF
:1003A000B372F6003363F600BE92B3E26200639A62
:1003B00072086311D60210499449B372F600336390
:1003C000F600BE92B3E26200639372085105D10554
:1003D000E30FD6F61317060193970601631CF70087
:1003E0001357060193D706013305F7409375F50FB0
:1003F00091E982804183C1833305F7409375F50FFE
:1004000091E182801377F70F93F7F70F3305F740E9
:1004100082800346050083C6050005058505631334
:10042000D60065FA3305D640828011059105E312A6
:10043000D6FE014582802105A105E31CD6FC0145BD
:1004400082803105B105E316D6FC01458280410565
:10045000C105E310D6FC01458280EFF27FD99317E6
:10046000350037950300130585CE3E95835545002D
:100470000841EFB0201379BBEFF29FD7B797030085
:100480000E05938787CEAA97884383D7470089C5EF
:10049000BE85EFB0C011BDBBBE85EFB08011E5BF1A
:1004A000EFF27FD341112A89AE841145854502C2FE
:1004B00002C402C6EFB0E04A9307000337150140BB
:1004C0002312F100130505808D474C003EC402C67F
:1004D000EFB0200137970300930687CE93193900B8
:1004E000CE9683D74600884215469386F4FF2312A2
:1004F000F1006364D606379603008A06130606CD1C
:10050000B296130487CE9842028702C68D474C00EC
:100510003EC4EFA0107D0DA08D474C0002C63EC426
:10052000EFA0307C33073401034577008545120581
:100530001375050FEFA05066138541194A952300E6
:10054000950005454101D1B1C1473EC6C1B79307EA
:100550008004E5BF93078002CDBF9147FDB7EFF25E
:100560003FC993874119AA9703C7070095472A8473
:10057000631EF700379503000E04130585CE229500
:10058000034565003D89EF20101B69B19545093F82
:1005900075F17D55DDBFEFF2BFC593874119AA976D
:1005A00003C7070099472A84AE846311F702379581
:1005B00003000E04130585CE229583477500BD8B7D
:1005C00091CBA6850145EFA0D06109A89945C93D09
:1005D00079FD89B1A6850145EFA0D05E0545D5BF5F
:1005E0007300203037950300130585F6EF002322B2
:1005F00001A0373701408357870093F70708E5FFCD
:10060000420541812316A7003737014083578700F1
:10061000898BEDDF01003737014083578700858BD9
:10062000EDDF0355C700373701401375F50F8357CA
:10063000870093F70708E5FF8280EFF27FBB1387FF
:1006400081E19306401F14C3138481E11305F00F69
:100650004D379307F00F6304F5001C40E5FB1305CD
:1006600015F0133515007DB6EFF29FB8B7170140AE
:10067000216723A8E7800545EFB0205C1305F00F44
:100680008D3F49BEEFF2DFB6B71701402167411138
:1006900023AAE7800545EFB0405A1305F00F913FBC
:1006A000693F2AC609E5C93732454101A5B6054566
:1006B000EDBFEFF2FFB393178501E1872A84AE8483
:1006C00063DC0700814513057003E5370547AA87FA
:1006D000636EA7061374F407B1476314F406136539
:1006E0000404013F13D58401293713D50401137580
:1006F000F50F013713D584001375F50FDD3D13F5A4
:10070000F40FC53D1305500919C4A14705456314ED
:10071000F40013057008F13DB1476315F4001305AB
:10072000F00FC13D29441305F00FE1351317850182
:100730006187AA87635C07007D141374F40F65F466
:1007400031A01D3781379307F00F51F93E85D9B499
:10075000EFF21FAA138741E19306400641112A8454
:1007600014C3938441E11305F00F2EC65935930746
:10077000F00FB2456317F5009C40F5F73E85410147
:1007800051BC1307E00F8147E31AE5FEB304B40040
:100790001305F00F0504B13DA30FA4FEE39A84FEF8
:1007A0001305F00FB9351305F00FA1358547F9B7DB
:1007B000EFF21FA42A849304052005040345F4FFE7
:1007C0000D3DE31C94FE1305F00F25351305F00FC6
:1007D0000D351305F00F313D7D896D15133515006D
:1007E00015BC01E9B707002003C5873B1375F50F5A
:1007F00082800545828063110512EFF2DF9DB70408
:1008000000201387843B8347070041119384843B76
:10081000898B294499C7034507001375F50F4101DA
:10082000EDB27D141305F00F1374F40FD93375F87E
:1008300081450145BD3D8547AA89631DF50C938718
:1008400041E11307803E9305A01A214598C39535D1
:10085000138441E163193509014991491305F00FEA
:10086000493B7C00CA972380A7000509E31839FF9C
:100870000347E1008547631FF7080347F10093072B
:10088000A00A6319F7081C4099C7B7050040130573
:10089000900A05356DF91C40B5CF81451305A003BD
:1008A000093D2DE9014411491305F00F99337C00EE
:1008B000A2972380A7000504E31824FF8347C10003
:1008C000314993F7070491E3114923A821E1693BDA
:1008D0006308090083C7040093F7E70F2380F4003F
:1008E00003C504001DBF81451305900AD93305498E
:1008F00063E5A90009499309900A1C4089C781450D
:100900004E85453B7DF91C4091C79305002041452C
:100910004D3345DD014955BF0545828035E5EFF290
:100920003F8D368411459DCEB707002083C7873B96
:100930000D45858B85EB83A701E1AE84B285A18B44
:1009400099E39315960085476310F4024545953366
:1009500019E5930500202685E53B1334150029335E
:10096000333580006FF01F8B4945A1336DF9930536
:1009700000202685F13B09C57D149384042065F889
:10098000814531453D33E1BF1145828055E1EFF2AC
:100990003F86411136841145A9C2B70700209387CD
:1009A000873B03C707000D45058B05EB83C7070091
:1009B0000945918B9DE383A701E1AE8413F787007E
:1009C00011E3260605476317E402B2856145D53178
:1009D00001C9054451393335800041016FF09F83CF
:1009E000A93965D91305E00F29312685D133133490
:1009F0001500CDB7998B99C7A2851305700932C62A
:100A00004D393246B28565456D3169F53D3119C9BB
:100A10001305C00FF93E2685613B09C57D149384FB
:100A200004206DF4193955D51305D00FD9365DB7AB
:100A300011458280631B051AB707002083C7873BD7
:100A40000D45858B6395071AEFF28FFAB9470111AF
:100A5000328463EAB718B79703009387C7F78A050C
:100A6000BE959C41828739391335150031A08145E7
:100A70002545813101C905452AC6FD363245056146
:100A80006FF04FF9C1450808E13175D50346010102
:100A9000854583478101198283469101034771018E
:100AA000631EB600A207B6974207B7063F00758FD0
:100AB0000507BA97AA071CC001457DBF0A0799839D
:100AC000BA97034761010566130606C02A07718FAE
:100AD000BA970346A1010347510186061D823D8B4B
:100AE0003297998A369785076517B397E700E1B77C
:100AF000938401E19C408145918B9DCB1305D008E7
:100B00004D3E35F91305F00FED34C1450808893124
:100B10003DD193040003FD141305F00F93F4F40F7B
:100B2000C93CF5F88347A10113D74700C14775BFFA
:100B30002545413629F1C145080819390DDD984090
:100B40008347A1018346B101098B01CF0347D1013E
:100B5000860793F7E7079D82B697198385077D1768
:100B600069B713973600618B958289873697FD8B1D
:100B700005078507B307F7023DBF83A701E12300FF
:100B8000F6001DBF814525452D36C145E31505EE0F
:100B900022857D3ED1BD81452945FDB7814513059F
:100BA000A003013EE31905EC814411491305F00F40
:100BB0008934B30794002380A7008504E39824FFB9
:100BC000E5BD83A701E1918BE38707EA8145130522
:100BD000D008C534E31105EA1305F00FEFF07FA14B
:100BE0009305000475B7114541BD1145828082808F
:100BF000014582808347350003472500A207D98F2E
:100C000003471500A20703450500D98FA2075D8D94
:100C1000828093D785002300B500A300F50093D709
:100C20000501E1812301F500A301B5008280584947
:100C3000F915791763F9E5008357A5000855B387BF
:100C4000B7023E958280014582801C419DC33E874C
:100C5000930500021306A00305078306F7FF13F8A8
:100C6000F60F63F20503E399C6FE9386270063043B
:100C7000D700FD5711A80386070093060003FD5710
:100C80006314D60018C181473E85828019E98147E7
:100C900025459CC18280254581479CC141016FF05B
:100CA0006FD7EFF2EFD41C4141112A84EDD703C76F
:100CB000070075D38356450003D76700E39DE6FC24
:100CC00003C517002EC6313E0589B24569F51C40A3
:100CD000E9B783C7B50103C7A501A207D98F0D479F
:100CE000631AE50003C7550183C645012207558FE6
:100CF0004207D98F3E85828093170601C183A18365
:100D0000A38DF500238DC500034705008D476318AB
:100D1000F7004182238AC5002182A38AC500828010
:100D2000EFF20FCD404D41110147814713050002FD
:100D30001548A1481303E0022D46B306E40083865C
:100D400006006381A6026393060195566317170197
:100D5000338EF500A3046E008507338EF500A304DF
:100D6000DE0085070507E31AC7FCAE97A3840700DA
:100D70008347B4001305C4012EC693F7F7032384F9
:100D8000F5008D3DB24588C1834774010347640176
:100D9000A207D98F2393F500834794010347840169
:100DA000A207D98F2392F50041016FF0AFC6EFF291
:100DB0002FC41309050350552A84034515008546A1
:100DC000CA85E936854415E550541C50184C230259
:100DD0000400B307F640814463FDE7008346340016
:100DE00089476398F6000345140085463A96CA85FC
:100DF000713E26856FF00FC25C55638CB702EFF22F
:100E00002FBF834745002A84AE8491EF0345140029
:100E100085462686930504031136814719C1854707
:100E2000FD5444D421A06137AA876DD13E856FF06F
:100E30006FBE81473E858280EFF28FBBFD575CD548
:100E4000230205002A844D3F914769E98344F42237
:100E50008347E4221307B00EA204DD8C834704030A
:100E60006388E700E10793F7F70F05476361F70A27
:100E7000AD67938757A5639DF400B795030021469E
:100E8000938585FB13052408EFF0A252814759C5CD
:100E90008347C4030347B403A207D98FC207C1879E
:100EA000130700206395E7060347D4032DC3930778
:100EB000F7FFF98FA9EF8347F4030347E403A20781
:100EC000D98FB1C7834704040547FD176361F70451
:100ED0008347240403471404A207D98F8DCB83478B
:100EE000440403473404A207D98F1307F00763684B
:100EF000F70013050405FD39C167636AF500034770
:100F000074048347640422075D8F814701EB2D67DA
:100F1000130757A589476383E4008D473E856FF02B
:100F20006FAFEFF24FAB054A8949637EBA085C495F
:100F30002A89894963F9F508834705000947B2847E
:100F40002E84638CE7080D47638FE70A639D47078C
:100F500013DA15001C512E9A93559A00BE95693DDF
:100F6000AA8935E1930A0903130B1A000588137A3D
:100F7000FA1F569A93F7F40F09CC83470A00856647
:100F8000C11613F7F70093974400F58FD98F93F7A5
:100F9000F70F2300FA0085472302F900832709028F
:100FA00093559B004A85BE95813DAA8909ED137B27
:100FB000FB1FDA9A01CC918093F4F40F23809A00FE
:100FC00085472302F9004E856FF02FA483C70A00DE
:100FD000A180BD88C19BDD8CD5B71C51A181BE9578
:100FE000213DAA896DF10604930709031374E41FD8
:100FF0003E9423009400C204C180A180A300940009
:1010000023024901C9B71C519D81BE95F533AA89B8
:101010005DF90A04930709031374C41F3E942285E3
:10102000D13E9204B70500F09180E98DC58D2285EF
:10103000CD36F9B7854763F0B70CEFF2CF99584931
:101040002A8463F7E502034705008946AE846301FD
:10105000D7068D466300D708631CF70013D9150027
:101060001C512E9993559900BE95793309C5FD57AA
:101070003E856FF08F991C509309190093D5990004
:101080001379F91F2299BE95228503490903AD33CF
:1010900079FD93F9F91F4E94834704038588A207CD
:1010A000B3E7270199C09183E1B7D207D183C9B7CC
:1010B0001C51A181BE9589335DF986041304040394
:1010C00093F4E41F26948347140003470400A20707
:1010D000D98F79BF1C519D81BE95393B49F9139534
:1010E0002400130404031375C51F2295EFF09FB06D
:1010F000931745004DBF85473E858280EFF2AF8D47
:101100002A8AAE89044191E903A9C4006305090054
:10111000DC486365F902054915A02685213F85470E
:101120002A8463E6A700054422856FF00F8EFD57E1
:101130006307F50ADC48E369F5FE4E899C4899E3AC
:101140000144DDB7631A3903DC48130419006363F3
:10115000F400094403250A00A285E93D0547E3049C
:10116000E5FCFD57630DF50615CDDC446376F7000D
:10117000D84863F3E7003E894A84854A7D5BDC48B2
:1011800005046365F400E3FD2AFB094403250A0016
:10119000A2854D3509C9E30855F963026505E310D9
:1011A00024FF79BF71D87D56A28526859D3B0DE52C
:1011B000639F0900D8489C48C0C479176373F7023D
:1011C00083C7540093E71700A382F400B1BF2286BF
:1011D000CE852685B93379DD8547E316F5F47D5450
:1011E000A1B7FD179CC8E9BFEFE2FFFE8547AE84BB
:1011F000004163F3B7065C4863F0F506AA89B2853F
:1012000019EA054AFD5A03A50900A68525352A894C
:1012100009E9014529A07D56228521337DD16FE062
:10122000DFFE630B4503630B55030146A68522854C
:10123000CD3975F558481C489306E7FF63FAD70087
:1012400085071CC88347540093E71700A302F400E6
:10125000CA84E36AE9FA75BF0945D1B70545C1B744
:10126000EFE27FF7011123A00500B2842EC6EFF054
:10127000DF9DAD47634C0502931725001385C1E13F
:101280003E950041B1471DC0B24593F4E40F80C1C3
:101290008347040085C303451400EFF08FD4937790
:1012A000150089EB81C4118911C1A9473E850561EB
:1012B0006FE0BFF50345140023000400EFF0AFD347
:1012C000137715008D477DF399C0118979FD81450C
:1012D0002285EFF07FB689476315F50404081309EA
:1012E000641F130A6423A6894A85EFF0BF9023A0E8
:1012F000A90041099109E3192AFF138904018549CD
:101300008C400D4591C52285EFF01FB363F1A90212
:101310009104E31799FE11478547E309E5F8B547BE
:1013200071B711478547E303E5F8E3EAA7FE834772
:10133000C4030347B403A207D98FC207C1871307A9
:101340000020E39EE7FC8349740483476404A209F8
:10135000B3E9F9006397090013054405EFF09F898D
:10136000AA8983440404232C340105479387F4FF9E
:10137000A301940093F7F70F032AC402E361F7FA7D
:101380000349D40393170901C1832315F400C1DB7A
:101390009307F9FFB3F72701D9F383472404834A5E
:1013A0001404A207B3E75701939A070193DA0A419D
:1013B000139B0A01135B0B01231464019377FB0059
:1013C000B9FF034544048347340422055D8D09E5D4
:1013D00013050405EFF01F828347F4030347E4037A
:1013E000A207D98F8DDFB386340313574B003E9786
:1013F0003697E366E5F2198DB3542503E36125F3CF
:10140000370600105516E36C96F041665516637B5F
:1014100096100D4952978904D29718D444C8232EA8
:1014200044011CD00D476310E90E8347B405034700
:10143000A405A207D98FB3E7FA00C207C187E390DA
:1014400007EE1305C405EFF0EFFA48D08A04938441
:10145000F41FA580E3E599ECFD571CC85CC4930715
:1014600000F8A302F4008D476310F90883471406BF
:1014700003470406A207D98FC207C18705476395B2
:10148000E70693051A002285EFF01F9731ED834799
:10149000F4220347E422A3020400A207D98FC20763
:1014A0006D77C187130757A56390E70413050403FD
:1014B000EFF04FF4B7576141938727256316F50284
:1014C00013054421EFF00FF3B77741619387272786
:1014D000631CF50013058421EFF0CFF108C8130554
:1014E000C421EFF02FF148C4138701E283570700AE
:1014F000230024018507C207C1832310F7002313AB
:10150000F400814765B3E30C0BE0B6975CD08947E4
:101510006314F900860425BF3387E40285880583B8
:10152000BA9435B705695519333999000509DDB500
:10153000EFE27FCA0329850023280500AA84004121
:10154000631B090203470400894763F4E7005C500A
:1015500095E38357840081E709456FE01FCB5C501A
:101560009CCC9C4C23AA2401E5DB13040403C0CCCF
:101570000145E5B73E898357A400FD59054A91EF1F
:101580008840CA85EFF01FAB2A89630E3501E375E9
:10159000AAFC5C48E366F5FEC1B7CA852285EFF078
:1015A0000FE988CC7DBF05454DBFEFE27FC483477F
:1015B00045002A84CDE3034704008D476314F708F0
:1015C000034754008547631FF7069304040313067B
:1015D000002081452685EFE0BFC49307500523070F
:1015E000F4229307A0FAA307F4220C4893072005DE
:1015F00013071004930620072308F402A308F4023B
:10160000930710062309F402A309E402230AD42055
:10161000A30AD420230BE420A30BF4201305842178
:10162000EFF02FDF4C441305C421EFF08FDE504C58
:10163000034514008546050650D4A685EFF00FB586
:10164000A30204000345140001468145EFF08FBE5C
:101650003335A00021A0EFF08FF531DD6FE09FBBA7
:10166000EFE27FB78347450041112A848DEB228545
:10167000EFF0EFDB1309040348D4AA891306002016
:1016800081454A85EFE0DFB981448357A40063E2D6
:10169000F4028357A400858FB337F00039A02EC61B
:1016A000EFF0EFF08547B24579D13E8541016FE01B
:1016B000DFB503451400854633869900CA85EFF0EF
:1016C000EFAC61F98504D1B7EFE2FFB083290501E2
:1016D000B70720002A8493890902044163E4F900D2
:1016E000232C05001C4C11459DC313FAF91FAE8A2B
:1016F00063130A084C4885071CCC81ED03D784008E
:1017000093D7590063E9E706232C040011456FE0E5
:10171000DFAF83D7A40013D79900FD17F98FA1EF8E
:101720002685EFF03F91054B2A896364AB0009459C
:10173000F9BFFD576314F5000545D1BFDC4863656B
:10174000F502E3830AFC4C482285EFF03F9B2A898F
:101750001D45E30E09FAE30C69FDFD57E30EF9FCA4
:10176000CA852685F53D69F9232A2401CA8526857F
:10177000EFF0EFCB08CC93840403D29423283401F8
:1017800044CC014569B7EFE2BFA3032B0500AA844F
:10179000AE899306F0021307C005838709006380B2
:1017A000D710638EE70E23A4040003C70900FD478A
:1017B00063F9E70E938A0402930BF002130CC00541
:1017C000B79C0300130D0B032D46930500025685AD
:1017D000EFE01FA501498147A14D130700029306C1
:1017E000E0022D46130800081303F009130EF0035E
:1017F000930EE007130FC00FF14FB385F90003C438
:101800000500138A1700637E870063047401631662
:10181000840BB387490183870700638E7709638C44
:101820008709D299630A091603C704029307500E69
:101830006315F70095472380F402130700029147D0
:1018400063778700838609006353D7008147A385A8
:10185000F402268503A90400E1392A8463140510E3
:101860008C4C4A85EFF04FD92A84631D050EC84C75
:10187000834705006387070E8347B50093F7F70397
:101880002383F4008347B500A18B91E72D46D685CD
:10189000EFE0323261C9814526853D357DBF85093E
:1018A000EDBD930700F8A385F402268551312A8403
:1018B00022856FE0BF94050AA9BF6301D40E637D42
:1018C000B90D637A8804637883009305040293F565
:1018D000F50F63E2BF044E9A1385270083070A00C1
:1018E00093F5F70F637ABE0A63F6BE0063D6070A64
:1018F0006364BF0A9387FDFF6370F90A93071900B9
:10190000B3822A0123808200D69709092380B70079
:101910002A8AD287DDB5A28513854CFCEFF062459B
:1019200025ED9307F4F993F7F70FE5481307000245
:101930009306E0022D46130800081303F009130E66
:10194000F003930EE007130FC00FF14F63E5F800AB
:1019500001141374F40FB3872A012380870005094B
:101960004DBF114483C7B40201C81147E312E4F428
:10197000918B9DFF15442DBF918B9DFB83C7640008
:10198000C18BEDDB8C4803450B0093F5F51FEA9501
:10199000EFF02FB488C40DBD194419BFE38ECDFEFE
:1019A0002149AD4DBDB7EFE21F832A8404411309DD
:1019B000500E11459309E0023D4AA14A0C4C99E1B1
:1019C00015C981A02685EFF02FC305ED5C4C03C738
:1019D00007001DCB83C7B70093F7F7032303F40079
:1019E000630D2701630B37016389470193F7F7FD07
:1019F0006385570101456FE05F8181452285E931AB
:101A000055DD232C0400C5BF1145E5BFEFE2AFFC57
:101A1000AA8403290500EFF0BFB12A8429ED9309B8
:101A2000500E8C4C4A85EFF02FBD2A8429E5DC4C02
:101A300083C70700639A37038C4C4A85EFF0CFBB0E
:101A40002A8405E1C84C130600028145EFE04FFDF2
:101A5000C84C2D4693850402EFE0121885472302F7
:101A6000F90022856FE06FFAE1DB85452685EFF00E
:101A7000BFC52A845DD59147E315F4FE1D44D5B753
:101A8000EFE20FF701112AC668082EC432C22ECE2B
:101A9000EFF0AF9B634205041387C1E19316250065
:101AA00036970C439387C1E1124689C5232007006E
:101AB00023800500324719C7A300A70023000700B1
:101AC000B69798C3014511C601466C002800EFF097
:101AD0002FF905616FE00FF42D45E5BFEFE2CFEE82
:101AE00039712EC6254A61C51379F603B2842A845A
:101AF0004A860C086800EFF0AFF62A8A55E5C2471F
:101B0000B24548083ECAEFF01FC811E58307F1034C
:101B100063D30700194593F7C401638E071441CDC1
:101B200091476313F5084808D5353DED13698900E1
:101B3000EFF00F8CAA84AA8542553905EFF06F8D1E
:101B40004255A6855905EFF0CF8CC249C25A03C54C
:101B50000900D685EFF0EF9793070002A385FA00FE
:101B6000C255AA8401464E85EFF00F99C25705472A
:101B7000238E0700A38E0700238F0700A38F070083
:101B8000C2472382E700B1C00146A685480883A961
:101B9000C702EFF06FE509E94245CE85FD14EFF08D
:101BA000AFA5C247C4C715C1232004002A8A5285A5
:101BB00021616FE0EFE48347A101C58BF9E793F75B
:101BC00044006395070EA188A5F49377890099C313
:101BD00013690904C24AC254130B840283A7CA02C0
:101BE00044D0A6851CD003C50A00EFF08F8E08C430
:101BF000AA891385C401EFE0FFFF83D76A0048C4B8
:101C000023082401AA84232054012312F400A308EA
:101C10000400232E0400232A04001306002081451B
:101C20005A8513790902EFE0AFDFE30209F8C1D06A
:101C300003D9AA0044C8854A2609FD5B6369990453
:101C40000145232C34012DF193F7F41FADD3424904
:101C5000CE854A85EFE0BFFD2A86094531D6A580AD
:101C6000269650CC034519008546DA85EFE01FCB58
:101C70001DDD054515BF0DF98347A10113F70701C8
:101C800005EB8988B9D0858BA9D31D4531BF0840A4
:101C9000CE85B3842441EFF0EFB9AA8963F6AA0098
:101CA000E31E75F9054571BF094561BF2145EDBDCD
:101CB0001145DDBDEFE2CFD00111AE8A23A00600B1
:101CC0006C082A8432C6B68BEFE05FFC2A8A25E5D1
:101CD000034A140163110A0683470401858B638755
:101CE00007140329C4005C4832463309F940637382
:101CF00026013289130C0020130B8402930CF01F71
:101D00007D5D630A09025C4813F7F71F6311071032
:101D10007247835DA70013D79700FD1DB3FDED004B
:101D2000639C0D0289EF0844854763EFA70089474C
:101D3000A308F400094A528505616FE02FCC0C4CD2
:101D40000840EFF02FAFCDB76317A5018547A30873
:101D5000F400054ACDB708CCF2470C4C3E853EC690
:101D6000EFE0FFEC69D5B389AD00B24763F22C0711
:101D700003D7A70093549900B3869D006374D700DE
:101D8000B304B74103C51700A6864E86D685EFE09B
:101D9000FFB84DFD8307040163DF0700484CB3091A
:101DA000354163FA9900A60913060020DA853385C8
:101DB0003A01EFE06262A60483A70B003309994061
:101DC000A69AA69723A0FB005C48BE9444C815BF02
:101DD000504C630C360303070401635F070003C51F
:101DE00017008546DA85EFE07FBA2DF183470401BD
:101DF00093F7F7072308F400F24785464E8603C59C
:101E00001700DA85EFE09FB131F1232E34014C4801
:101E1000CA8493F5F51FB307BC4063F32701BE8462
:101E20002686DA955685EFE0225B79B71D4A21B701
:101E3000EFE20FB901112E8A23A006006C082A8454
:101E40003289368BEFE09FE4AA8929E583491401A2
:101E50006392090483470401898B638607185C48F1
:101E6000338727016374F70013C9F7FF930B002032
:101E7000930A8402130CF01FFD5CCDA00C4C22854C
:101E8000EFF0CFA7631205108347040193E707041F
:101E90002308F4004E8505616FE04FB66317950186
:101EA0008547A308F4008549F5B71C4408CC91E3A5
:101EB00008C48307040163D10702F247504C8546EA
:101EC00003C51700D685EFE07FAC79F9834704019D
:101ED00093F7F7072308F400F2470C4C3E853EC603
:101EE000EFE0FFD44DC5338DAD00B24763762C0BC8
:101EF00003D7A70093549900B3869D006374D7005D
:101F0000B304B74103C51700A6866A86D285EFE001
:101F1000FFA759F54C4C338DA54163709D02260DEA
:101F200013060020B305AA015685EFE0E24A834775
:101F3000040193F7F7072308F400A60483270B0096
:101F400033099940269AA6972320FB005C48BE944B
:101F50005C4444C863F39700A6875CC4E30609F2B7
:101F60005C4813F7F71F39EB7247835DA70013D75F
:101F70009700FD1DB3FDED00E39D0DF2E39007F02A
:101F800008448145E30D05EE8547E319F5F08947DF
:101F9000A308F4008949FDBD584C630FA7015444C0
:101FA0005848637BD70003C5170085466A86D685E7
:101FB000EFE0DF96E31605EE232EA4014848CA841D
:101FC0001375F51FB387AB4063F32701BE842686E4
:101FD000D2855695EFE042408347040193E707F826
:101FE0002308F400A1BF9D4975B5EFE26FA0411130
:101FF0006C002A84EFE09FC9AA8759E903470401CE
:1020000093760704D1C66207618763530702B2471C
:10201000504C854603C5170093058402EFE01F97D7
:1020200085473DE58347040193F7F7072308F4004C
:10203000EFE01FBC2A890C503245EFE0FFDBAA8796
:1020400021E9445083C7B400A68593E70702A3851E
:10205000F40010440840EFE03FCA4C441385C4012B
:10206000EFE03FBBCA8513856401EFE09FBA3245BC
:10207000854723890400A38904002302F500EFF0BB
:10208000CFD203470401AA871377F7FB2308E400A4
:102090003E8541016FE00F98EFE28F9541112A8450
:1020A000A93701E96C002285EFE05FBE19E123202A
:1020B000040041016FE00F96EFE28F9301112EC6ED
:1020C0002DC12A8401466C086800EFF06F990DE17C
:1020D000F247B24522851CC0EFF0EFEA29E58307FD
:1020E000B40263C1070283476400C18B89E71545C9
:1020F0002320040025A0F2474C4C03C50700EFE065
:102100005FBD08C4F247228583D767002312F4001D
:10211000EFF00FC29147E30CF5FC79F905616FE030
:102120006F8F2545E5BF9147E303F5FCD1B7EFE29B
:102130002F8C41116C002A84EFE05FB519E1232058
:10214000040041016FE00F8DEFE28F8A4111AE84F0
:102150006C002A84EFE09FB309E5228591E4EFF05B
:102160002FBD41016FE00F8BEFF0FF839377B5FF39
:10217000EDFBA38404001C4C89C7A6852285EFE0F3
:102180003FBA81452285EFF02FD49147E31BF5FC40
:102190000145C1BFEFE2CF8559712AC609464C08F7
:1021A0006800EFF0EF8B1DE1D247B24528083ECC26
:1021B000EFF06FDD01ED83073104194563C80700B7
:1021C0000344E1019377140089C71D4565616FE001
:1021D0006F845249D255418803450900EFE07FAF33
:1021E000AA841DE06244C2552285EFE0FFC079FD5C
:1021F000D25715572380E70085472302F4009DE05E
:102200005245EFF08FBAD9B7AAC6C800CAC2EFF0DC
:102210002FB24DFDC800EFF00FF945D99147E317F4
:10222000F5FAC9B70146A6852808EFE0FFFB59FD7E
:10223000C1BFEFD25FFA5D712AC609460C0868007B
:10224000EFF00F822A846310050EC247B245481092
:102250003ED2EFF04FD32A846301050E91476314F9
:10226000F50CC247814548083ECAEFE03FE9AA8421
:102270001D4409C9854709446306F5001304150088
:1022800013341400EFE0DF962A8A55E04245A68514
:10229000EFF00FBD2A8441ED42442D469305000224
:1022A00013050403EFD0DFF71309E002C149230847
:1022B000240313056404A30D3403D285EFE07F9556
:1022C0004245268693050503EFE01FA3424413060B
:1022D000000293070405930504033E85EFE0C20F57
:1022E0003256A3082405AA852285EFE0FFA0C24745
:1022F0000549481023822701EFF04FF12A8405E9B0
:102300000645D2855905EFE0DF9086454245268691
:10231000EFE09F9E86474245A385370123022501B2
:10232000EFF0AFA82A84228561616FD01FEE0146CD
:10233000A6854808EFE05FEBFDB72144EDB7EFD28B
:102340003FEB75712AC628002EC4EFE01F900946A6
:102350004C086800EFE0DFF0631D050ED247B24580
:1023600028183EDCEFF02FC26315050E83473106B7
:10237000194593F7070A639E070CD645130600021A
:102380002808EFE062052C181306C002C810EFE021
:10239000A204A245C810EFF00FBF4DE9365786479B
:1023A00021456318F70A5657A6476314F70AC81061
:1023B000EFF0CFE559ED0A444D4693055102130560
:1023C000D400EFE062018347310213F7070149C7E8
:1023D000D244A305F4000549238224018347B400B5
:1023E000C18BA1C70647B6576301F70403C50400B4
:1023F000A285EFE01F8EAA852685EFE05F83AA8580
:102400000945A1C92685EFE03F9F21E55245930785
:10241000E00203471505631AF700365693050505D4
:10242000EFE09F8DD247238227016254C645228563
:10243000EFE09F9C19EDD64715572380E7005245E2
:1024400085472302F400EFF04F9621A09147E30067
:10245000F5F649616FD01FDC93E7070295BF0307CC
:1024600005009307F002630CF702EFD27FD82A84AD
:10247000EFF0423B3307A400A3000700BA87B3067E
:10248000F74063D8A60083C6F7FFFD17A380D700E7
:10249000FDB79307F0022300F4006FD0BFD782800E
:1024A000EFD21FD5130101879307A0022A891306D3
:1024B000C00F814568183EDCEFD09FD69304F00230
:1024C0001306C01F8145681A232C9112EFD05FD5E7
:1024D0000325090039CD1841C947631CF7041306C9
:1024E00000102C18EF30F02103250900201A1306E4
:1024F0000010A285EF30F0202285EFF0A232930782
:1025000001797D153E958307859A6394970023048E
:10251000059A2285EFF002319305F5FFA295930706
:10252000F00263818502038705006303F702FD154E
:10253000CDBFAA85379503001305050EEF20904205
:102540008144ADA0030781139307F0026318F700DD
:102550002380050028188505EFE0920337A40300C7
:102560000546930504C313050156EFF06FD119C555
:102570003795030013054506EF20001613052003C9
:10258000EF10807905462C18281EEFF02FD505E5B1
:10259000281EEFF07FB02818EF200050AA840146D3
:1025A000930504C30145EFF0AFCD59F9268513011A
:1025B00001796FD03FC66800EFF07FB70146930501
:1025C00004C30145EFF0CFCBA5BFEFD27FC213010B
:1025D00001A72A849307A0021306C00F814568183B
:1025E0003EDCEFD0FFC3084035C91841C947631727
:1025F000F706130600102C18EF30B0102818EFF073
:102600001FE6B7A403000546938504C38816EFF0C0
:102610002FC719C53795030013054506EF20C00BDA
:1026200013052003EF10406F05462C18281AEFF011
:10263000EFCA09E9281AEFF03FA62818EFF09FB576
:10264000014419E103A481E96800EFF05FAE01469F
:10265000938504C30145EFF0AFC209A8AA85379559
:1026600003001305050EEF20F02F0144228513010E
:1026700001596FD03FBAEFD2BFB7130101CA2A8404
:102680009307A0021306C00F814548183ED8EFD02B
:102690003FB908403DC11841C9476310F70613060A
:1026A00000100C18EF30F0050818EFF05FDB37A4CE
:1026B00003000546930504C3081AEFF06FBC19C563
:1026C0003795030013054506EF200001130520038D
:1026D000EF1080640C184800EFF01F9E1DE94800C1
:1026E000EFF0FFA40818EFF0FFAA05C50146930517
:1026F00004C30145EFF0CFB801A8AA8537950300C0
:102700001305050EEF2010260145130101366FD089
:102710007FB04800EFF0BFA10146930504C3014517
:10272000EFF00FB603A581E9CDB7EFD27FACAA8455
:102730000841130101BA1DC10041C9476310F402E9
:10274000130600100C18EF30C07BDC40884305E511
:10275000AA85379503001305050A31A0AA85379588
:10276000030013050508EF20F01F01442285130123
:1027700001466FD03FAA1C41E39C87FC1306001062
:102780000C1AEF3000780818EFF07FCD081AEFF040
:102790001FCDB7A403000546938504C3081CEFF0C2
:1027A0002FAE19C53795030013054506EF10D072FB
:1027B00013052003EF1040560C1A0818EFF03FB82D
:1027C00015C5B73500003795030093856549130596
:1027D000050CEF10702601444800EFF05F950146AC
:1027E000938504C30145EFF0AFA949B703A481E97C
:1027F000E5B7EFD25F9EAA8908417D731303036793
:102800001A9121C103290500C947631CF902856794
:102810007D74938707998A9793040468BE9413067E
:102820000010A685EF30E06D83A74900884315E9C5
:10283000B7350000379503009385654913050500FA
:1028400009A8B7350000379503009385654913053E
:1028500045FDEF10701E014539611301017D6FD0F8
:10286000DF9A1C41E39627FD8567938707998A972E
:10287000130404783E9413060010A285EF306068BC
:102880002685EFF0DFBD2285EFF07FBDB7A4030002
:102890000546938504C313050176EFF06F9E19C5B5
:1028A0003795030013054506EF1010631305200349
:1028B000EF10804685677D749387079993050468B8
:1028C0008A970546BE95080EEFF04FA115C1B735A2
:1028D000000037950300938565491305C502EF1085
:1028E000B0150146938504C30145EFF06F99A5B774
:1028F000056993070999930504788A972946BE9537
:1029000013058153EFF08F9D1DED1307099993096E
:102910008467CA870A97BA99138707991309C46706
:102920000A973A993A94CE86130600100C0C080EBA
:10293000EFF04FB81DE503268467CA860C0C080E1D
:10294000EFF00FCFCDB7B735000037950300938573
:10295000654913054504EF10300E080EEFF0CFF374
:1029600049B713058153EFF04FE813058153EFF09A
:10297000AFF2080EEFF04FF20146938504C3014514
:10298000EFF00F9003A581E9C1BDEFD27F8613015F
:1029900001CD2A849307F0021306C00F8145480039
:1029A0003EC0EFD0FF87084039C51841C9476314BE
:1029B000F704130600108A85EF30A0540A85EFF063
:1029C0001FAA37A403000546930504C30802EFF0CD
:1029D0002F8B19C53795030013054506EF10D04F0F
:1029E0000A85EFF01F850146930504C30DC101451B
:1029F000EFF00F8901A8AA85379503001305850D0F
:102A0000EF2040760145130101336FD0BF80EFF016
:102A10002F8703A581E9C5BFEFD28FFD0841117152
:102A200019CD1841C947631CF700130600108A85A9
:102A3000EF30204D03A581E911616FD0AFFDAA856C
:102A4000379503001305850DEF20C0710145EDB7E3
:102A5000EFD20FFA11710A85EF20000411616FD0D7
:102A60006FFBEFD2EFF8138541E2EF90803F6FD01C
:102A70006FFAEFD2EFF7138541E2EF9040576FD036
:102A80006FF9EFD2EFF64111854513058006EF800F
:102A9000506D371901400D44E144930730FB4C0061
:102AA000130509402312F10026C622C4EF807023CB
:102AB000372501409307B0F94C0013050580231218
:102AC000F10026C622C4EF80D021930700084C00F5
:102AD000130509C02312F10026C622C4EF8070201E
:102AE00041016FD02FF3EFD2AFF0EFF09FF98545A2
:102AF00013050010EF8010659387411D4147D8C72B
:102B00000567D8D3138701218946D4C3D8DB98DF62
:102B100023A0070023A4070023A8070023AC070075
:102B200023AA070023A0070223A4070223A6070263
:102B300023A807021385411D9D47232C070014C3BA
:102B400054C31CC723260700EF80300C8545014580
:102B5000EF8050170545EF90C0126FD0AFEBEFD26A
:102B60002FE92A84116579718545110502C602C8CD
:102B7000EF80305F9307004037150140231AF100C2
:102B80004C0893078004130505803ECEEF80701536
:102B900022D037440140B7070C000C101305048005
:102BA0003ED402D223160102EF8070741305048014
:102BB0008545EF9040018357C4801304048081450C
:102BC00093E707022316F4002285EF80D07F930756
:102BD00050132316F100680085472307F10002C84F
:102BE000EF80302B228593050002EF908001228533
:102BF000C145EF90000122858945EF9080009387C1
:102C0000C12223A6F1E223A8F1E2238D01E285454A
:102C10002285A38D01E2EF80107B45616FD08FDFAD
:102C2000A38C01E29387C12223A6F1E223A4F1E25F
:102C3000238C01E223A8F1E2238D01E2A38D01E2BE
:102C400037072000B7E700E023A2E7108280138750
:102C5000B1E39387A1E38346070083C7070093F797
:102C6000F70FE386D7FE938701E39443138616009C
:102C700090C38347070003850600850793F7F70F86
:102C80002300F700834707001375F50F8280EFD20A
:102C90002FD641118545114502C202C402C6EF80FC
:102CA000504CE1772312F10037140140C1473EC672
:102CB0004C008D47130504803EC4EF809002A1674D
:102CC0002328F4801304048041016FD0AFD4EFD2E5
:102CD0002FD201118545214502C002C202C402C69D
:102CE00002C802CA02CC231E0100EF80904785452E
:102CF0000565EF80104785450545EF809046371400
:102D000001409307000261498D448A85130504C080
:102D10002310F1004AC426C2EF80A07CC1472310D3
:102D2000F1008A859147130504C03EC4EF80607BA3
:102D3000A1478A85130504C02310F1004AC426C2A6
:102D4000EF80207A85450545EF80F006B70704013E
:102D50003EC6B70700023ECAC1473ECC6C009D4745
:102D600037350140231EF10002C8EF80D050854561
:102D700037350140EF80D05505616FD0AFC9EFD234
:102D80002FC7130101BA37A403000546930504C3F6
:102D9000081CEFE0FFCE11C50145130101466FD0BD
:102DA0006FC7B795030029469385850F2800EFE08C
:102DB000FFD27DF1B7950300540015469385451069
:102DC0002800EFF0EF8669F92800EFF0EFAC69F525
:102DD0000146930504C3EFE0BFCA5DFD37950300CC
:102DE0001305C510EFD0B222054545BFEFD24FC045
:102DF00037440140AA8413090480930500044A85DE
:102E0000EF80705F7DD9A68513050480EF80705D2B
:102E10006FD04FC0EFD2CFBD011113060002814524
:102E20000A85EFD0EFBF854513050020EF80703392
:102E3000116537240140EF80B01213050440EF8084
:102E40000017B7070E003EC68A8585471305044064
:102E5000230AF10002C002C202C402C8EF80801936
:102E6000854513050440EF80601E8145130504402D
:102E7000EF80203113050440EF80401E930404408E
:102E80002685EF80401E6DFD130504403724014068
:102E9000EF80E01D930404402685EF80E01D6DFD6A
:102EA00013050440EF80602F239BA1E285451305A5
:102EB0000440EF80002D0545EF80002A05616FD0AA
:102EC0006FB5EFD2EFB2011185453705002002C87A
:102ED00002CA02CC02CEEF80B02AEF8060470C0815
:102EE000014502C802CA02CC02CEEF80E0470C08BE
:102EF0004145EF80604781450145EF80E0498145CC
:102F00004145EF8060498545114502C202C402C6B1
:102F1000EF80302593070003371501402312F1009D
:102F20004C008D47130505803EC402C6EF80605BF0
:102F300005616FD02FAEEFD2AFAB37240140937550
:102F4000F50F8D46054613050440EF80E0148545D6
:102F500013050440EF80C012930404408945268580
:102F6000EF80802165DD13050440EF80601E52056F
:102F700051816FD02FAAEFD2AFA70945EF80007122
:102F80007164892CEF80D04813050420EF80105520
:102F900013050420EFF0BFBCB707002083A5C73B93
:102FA0003795030013058511EFD0C26AEF804045C5
:102FB000AA853795030013058512EFD0A269EFF0BB
:102FC0007FE5EFF01FF01D20EFF0FFB12945EF8006
:102FD000504BEF80F049EFF09FCBEFF05FCFEFF079
:102FE0003FC4EF70502CEF70706F01A0EFD24FA074
:102FF000854537050018EF80B0180545EF80E0746F
:103000000545EF8000775145EF80B047130500106C
:10301000EF80A0780545EF800079EF809022EF8067
:1030200050232945EF80F0451145EF8080309967A6
:103030009387A7A56307F506EF80E02C0545EF8091
:10304000407301449304A00F13051004EF80F01A9D
:1030500011E963069404050429451374F40FEF8005
:103060005042DDB79307A00F630BF4021305001065
:10307000EF80A0720545EF800073EF80901CEF8019
:10308000501D85450D45EF80301AEF80901BEF8075
:10309000501C99659385A5A51145EF80C0276FD079
:1030A0006F972945EF80F03D13050010EF80E06E2B
:1030B0000545EF80406FEF80D018EF8090192945CB
:1030C000EF80303C85450D45EF801016EF8070177E
:1030D000EF8030182945EF80D03AD1B7B7170240BA
:1030E0009843B706FFF841111367170098C3D843F8
:1030F00037060200758FD8C39843B706F7FEFD1652
:10310000758F98C39843B706FCFFFD16758F98C35B
:10311000D843B70681FFFD16758FD8C39843B7060D
:1031200000ECFD16758F98C33707FF0098C723A6DC
:10313000070202C402C69843C166558F98C3B716EA
:10314000024005679C42F18F3EC6A24785073EC4F8
:10315000B24781E7A247E397E7FEB71702409C43D7
:103160001397E7006356070685473EC632478547F3
:10317000631EF704B7170240D843B706C1FFFD1618
:10318000D8C3D843D8C3D84313670740D8C3D8435C
:10319000758FD8C3D843C166558FD8C39843B70637
:1031A0000001558F98C3984393166700E3DD06FE30
:1031B000D843B7160240719BD8C3D8431367270082
:1031C000D8C32147DC42B18BE39EE7FE41018280F8
:1031D00002C669BFB7160240D842B70700201146A1
:1031E000318B9387C73B6305C70021466309C7023C
:1031F00037177A001307072098C337170240584340
:1032000011839376F70037070020130707103697CE
:103210008346070098433357D70098C38280D8422B
:10322000D442416649833D8BF18E1306270015CFAA
:103230003D47630FE6024147630FE602454781457C
:103240006313E6004146A1E23747024003270780A7
:10325000418B0DC737177A00130707203306C702C3
:1032600090C3C1DD9843058341BF81454946E1BF15
:1032700085453546C9BF81453D46F1B737173D0005
:1032800013070790E1BF3715024058559316F70012
:10329000585563DF060411833D8B930617003717DB
:1032A0007A00130707203357D70298C35455A182D9
:1032B000BD8A8DE295463307D702058398C3371739
:1032C0000240585794433D8B050733D7E60298C315
:1032D000984369B705456394A600E546E9BF3D45B7
:1032E0006396A600D1463387E602C9BF8906E5BFCB
:1032F0003D8B9306170037177A00130707203357C3
:10330000D702F1B783C7B1E383C7A1E303A581E97E
:103310008280054723A8E1E803A581E9828093879D
:1033200091E603870700014501C7238007003A851E
:1033300082802947938701E76317E50003C70700E9
:1033400005072380E70003C7070005072380E70080
:103350008280084182801C4181E703A581E9828047
:10336000014582801C4191C79843894701456314F8
:10337000F70003A581E982801C4189CB9843B947B6
:1033800001456316F70003A581E98280014582802B
:10339000084101C91841A14701456314F70003A57D
:1033A00081E9828082801C4189CB984399470145FD
:1033B0006316F70003A581E98280014582800841F8
:1033C00019C91C4119476386E700314701456394D9
:1033D000E70003A581E982801C4189CB9843B1476E
:1033E00001456316F70003A581E9828001458280CB
:1033F0001C4189CB9843A94701456316F70003A5F3
:1034000081E98280014582801C4189CB9843C9476C
:1034100001456316F70003A581E98280014582809A
:103420009387018103D70700136727002390E700E4
:1034300011C1084182802E85828001458280EFC2C1
:103440003FDB4111A307A100371500209305F100D0
:103450009386C1E905461305C557EFE07F9D4101FD
:103460006FC05FDB938791E60385070001C523806A
:1034700007008280EFC2DFD741119305F1009386E8
:10348000C1E905461385C179EFE0DF820345F1000C
:1034900041016FC03FD8EFC2BFD52385A1E61375A8
:1034A000F50FEFF0BF946FC0FFD6EFC27FD4314568
:1034B000EFF07FFE01456FC0FFD59387018109E9D9
:1034C00083D7070093F7071085C303A581E982809E
:1034D000084103D7070011E9420741831377F7EF4B
:1034E000420741832390E700828013670710DDBF06
:1034F000938791E60385070001C52380070082803A
:103500001387C1E514437D55938716001CC3B7A7E5
:10351000030093874700B6978387070091C33E85D2
:10352000828001458280014582800145828001457B
:10353000828001458280014582800145828001456B
:10354000828001458280014582800145828001455B
:10355000828001458280014582800145828001454B
:10356000828001458280014582800145828001453B
:10357000828001458280EFC2BFC723A801E403A572
:10358000C1818545EFC0DFD7EFC29FC6EF80607372
:103590006FC05FC803A64181B7070800E11783A683
:1035A000C1E4B29781451387C1E4CCC323A00700CF
:1035B000138587FFBE856318F60023A4C1E4C167A5
:1035C000B6971CC38280AA87CDB7938781E49843BE
:1035D0002320050088C39387C1E458C19843050799
:1035E00098C382805C4101476158B386E50003853A
:1035F000060081E713351500828005C5E1460145C7
:103600003386E5000306060001CA3316D600E1162C
:10361000518D0507E39606FFD4436314D5009C4300
:10362000E9B701458280EFC2BFBC2A84C944394949
:1036300029C00840937715008DEF936715001CC0D3
:103640009307F5FF63F5F400F93F4040D5B7E30E6B
:1036500025FF630895008947631DF5005C408D8B4D
:1036600089EB5C4099C798439366170094C3BA8767
:10367000D5BF6FC03FBAEFC2BFB723A401E4370480
:10368000080023A601E46114E15403A541812295B9
:103690001C4113F7170001EBEFF03FF36114E31641
:1036A00094FE6FC03FB7F99B1CC1CDBFEFC25FB4A2
:1036B0002A8403A581E941112EC6EFF0DFF603A5A8
:1036C00041E5EFF05FF603A501E5EFF0DFF52285B8
:1036D000EFF07FF5B2452E85EFF0FFF4EFF0BFF984
:1036E00041016FC03FB383A74181B1481363150007
:1036F000B306F540E19ABE963E8713EE1500894E5B
:10370000631DD702494609486388E706944393F846
:10371000160063810806F99A6387C600639C060554
:10372000D4438D8AA1EAD443B1C683A846006393EB
:10373000B800C8C29442F99AC5BF10431378160066
:10374000630808021378E6FF130FF8FF63EAE80145
:103750006310D8030328470013783800631A080061
:103760006314C3002320C70150436313A6004CC356
:10377000210779B7A10749BF8280EFC2DFA5AA8AD6
:1037800003A581E9EFF03FEA03A541E5138941E58F
:10379000EFF07FE903A501E5938901E5EFF0BFE8CC
:1037A00083A44181138A418126841C40858B99C35F
:1037B0002104E5BFB7070800E117BE9463789404BD
:1037C0009C4013F7170029C31CC0D840F99BA28561
:1037D00058C09CC02685EFF01FF183270900639431
:1037E00097002320890083A709006394970023A0F2
:1037F000890083A70A006394970023A08A001C40D5
:10380000858B99C32104E5BFE1144DBFEFF0BFE6FE
:1038100003250A003305A4400D856FC01F9FEFC22A
:103820003F9D01112EC674086C001146EFE04FE079
:1038300005616FC03F9EEFC2BF9B411134006C0019
:103840001146EFE02FC7324541016FC0BF9CB7174B
:1038500000209387077B94432A87630CD500D443C9
:10386000630BD5009C4701456314F7000945050526
:1038700082800145EDBF0545DDBF01C908417D15C9
:103880001335350113451500828001458280EFC252
:103890003F960841EFF07FFE09E503A581E96FC07F
:1038A0007F970145EDBFEFC2BF940841EFF0FFFCE9
:1038B00009C503A581E96FC0FF950145EDBF01C9A9
:1038C00008417D15133535011345150082800545E6
:1038D0008280EFC2FF910841EFF07FFE09C503A58A
:1038E00081E96FC03F930145EDBFAA8735C11375CC
:1038F000F50F130705FD1377F70FA54663E7E600FD
:10390000130515FD6205618582801307D00213053A
:1039100050026380E7041307A00213056002638A64
:10392000E70213074002130570026384E70293E77E
:10393000070293F7F70F1387F7F91377F70FE546A9
:103940007D5563E8E6009387A7FA1395870165BF65
:10395000014582809377F50F1387F7FF1377F70FF1
:10396000A54663E8E6009387F702E207E1873E8514
:103970008280138757FF1377F70FE54663E5E6006C
:1039800093876705DDB7130750029307D002E30062
:10399000E5FE130760029307A002E30AE5FC1307A4
:1039A00070028147E315E5FC93074002C9B7EFC2F7
:1039B0009F822A8A994401490145930A800233046F
:1039C0005503B3072A01838907004E85EFF0FFF105
:1039D0002295638309000509FD14F5F06FC0FF828D
:1039E000EFC26FFF2A8A0144AD449949B3078A00A8
:1039F000038907004A85EFF05FEF634A950063068D
:103A0000090005048144E31334FF054511A0014575
:103A10006FC0AFFF930705FD93F7F70F2547636668
:103A2000F7001395870161858280136505029377FE
:103A3000F50F1387F7F91377F70F95464145E3E53F
:103A4000E6FE938797FAF1BF81470DC114410947FC
:103A50008147639DE600B70724F4BE9548419397DC
:103A60002500F981CD8F898F93B717003E8582801D
:103A700001E513B51500828081C95841DC41631509
:103A8000F70008418C41EDB70145828093773500FE
:103A900093F6350089CB814789C6B307B54093B704
:103AA00017003E8582808147EDFEEFC26FF4EFF094
:103AB0003FFC6FC02FF685476301B502814711CDEA
:103AC00089CD5441D841639AE6001841894663186C
:103AD000D7009C41F91793B717003E85828099461D
:103AE0006315D7009C41E917FDB7B1466315D700B0
:103AF0009C41D117CDB7A946E311D7FE9C41D917F8
:103B0000D9BFEFC2EFEE5C4108418C43EFF0BFFA42
:103B100009C503A581E96FC0EFEF0145EDBFAA8795
:103B20000947054599C993F6150099C23305F50271
:103B3000B3C5E502B387F702F5B78280EFC2AFE9FC
:103B40008041AA84AE89014909CC1C4026858C435A
:103B5000EFF07FF65C4009C9631B090023A0F90060
:103B6000268422856FC06FEA22893E84F1BF23221A
:103B7000F900FDB79307F5FF13D517405D8D9357F7
:103B800025405D8D93574540C98F13D58740C98F18
:103B900013D507415D8D050589476353F500094538
:103BA0008280EFC2EFE441112A8432852EC6EFF005
:103BB0007FFC93571540B245484091CB144133F7F1
:103BC000B7001385460011E336858587FDB74101AF
:103BD0006FC04FE4EFC2CFE14111AA840144630CEE
:103BE00094002E852EC632C4029605041374F40F79
:103BF0002246B245EDB741016FC0CFE15C4161564D
:103C0000014591CFCC436147B3D6E54093F6F60F1B
:103C100091C205056117E319C7FE9C43DDB7828099
:103C200093D6254093C5F5FFF9578D89B385B740E5
:103C300011050CC2814763D7D700184101C73A85E7
:103C40008507D5BF8280EFC2AFDA41117000EFF077
:103C50003FFD1841014519CBB24779551D8D93178A
:103C6000350048433355F5401375F50F41016FC0DA
:103C70006FDAEFC24FD6AA89AE8401441309F01F50
:103C8000A2854E85EFF03FFC6205618511C9B387BF
:103C900084002380A7000504E31424FF1304F01F0D
:103CA00026942300040026856FC02FD6938791E6C3
:103CB0000385070001C5238007008280EFC24FD330
:103CC0009387C1E58C431387150098C303A581E54D
:103CD000EFF07FF793178501E187294591C33E8572
:103CE0006FC04FD391C99C4189C79843584363041F
:103CF000A700CC41C5BFBE852E858280EFC24FCFC5
:103D000040412285EFF01FFE11E583A541E52285A4
:103D1000EFF05FFD6FC00FD0EFC28FCD2A84EF7040
:103D20003075EF70107A2A94EF70B079E36E85FEEB
:103D30006FC04FCE938791E60385070001C52380AE
:103D400007008280EFC2CFCAFD54EFE05FF013148A
:103D5000850161840945EFF03FFCE30894FEA94723
:103D60006307F4029387018183D70700938401815D
:103D700093F7070481E72285EFF0EFF1ED47631831
:103D8000F40083D7040093E747002390F4002285D2
:103D90006FC04FC8EFC2CFC59307803E3305F50211
:103DA000EFF09FF76FC00FC7EFC28FC42A84EFF008
:103DB000DFAC1DC11C40014585C3D843B70790D077
:103DC0009387B704631AF70040402285EFF0FFAAFB
:103DD00001C54840133515006FC0CFC383070500E8
:103DE0008DC781471306A0023307F50003070700BC
:103DF000B386F50019C76306C7002380E600850770
:103E0000E5B7238006003E858280FD57EDBFEFC2F7
:103E10008FBC0307050005CB2E89AA84EFD0922022
:103E2000AA894A85EFD012202A8A0144B3078A4022
:103E30003305890063C937014E86A685EFD0B21FCE
:103E400001C50504E5B77D5422856FC00FBCEFC2E4
:103E5000AFB71171AE89AA8A8A854E85EFF01FF837
:103E6000FD572A84630BF500635DA0002A86D68582
:103E70000A85EFD0521C11C50144228511616FC023
:103E80002FB8B3878900038707009307A002631840
:103E9000F70493041400854722897D5B3E84930BCD
:103EA000A0028A8533859900EFF05FF32A8AB385F3
:103EB0002A01631665018387050085CF5DFC0A85AD
:103EC000EFF0FFF4E30A65FBD294B3879900838790
:103ED00007002A996398770185040544D9B7A2841D
:103EE00081475DBF33852A01529583070500D5DBE5
:103EF00061B7054459B7B707002003A7073C23A6BD
:103F0000E1828280EFC24FAC03A701832A8B032A90
:103F1000070093848182114993890183F15AB38701
:103F200029019C43014483AB070063517403DC40C7
:103F3000131744005A85BA978C43EFC0725D09E5A8
:103F4000330544016FC0CFAB0504C5B77119F11437
:103F5000014AE31659FD3705DC0BEDB783A7018352
:103F60009443B337D50093C717001397270093875F
:103F70008182BA979C436376D50012053E954841ED
:103F80008280158DDDBF83A701839443B337D500AD
:103F900093C717001397270093878182BA979C4392
:103FA0006377D50012053E95034585008280158D07
:103FB000D5BF83A701839443B337D50093C71700B8
:103FC0001397270093878182BA979C436376D50025
:103FD00012053E9548458280158DDDBFEFC24FA189
:103FE00083A701839443B3B7D50093C717001397F2
:103FF000270093878182BA979C4363FCD500920582
:10400000AE97AA858843EFD0D2053335A0006FC0A4
:104010006FA0958DEDB79377350091EB19C5834768
:104020007500938767FC93B717003E8582808147B0
:10403000EDBF014731C91441894701476396F60432
:104040005C4193D62700FA07D58FB70624F463EDB9
:10405000D7023707DC0BBA9703A70183104333B7A6
:10406000C7001347170093162700138781823697DE
:10407000184363FDC7009207BA979C430387070064
:10408000130767FC133717003A858280918FE5B7D5
:10409000EFC20F96004105C0184089476310F70230
:1040A0002285EFF01FF911E548400144EFF0BFF61B
:1040B00019C103A481E922856FC0CF950144E5BFF2
:1040C000B70790D0138737006314E5001385770393
:1040D0009386D1E783C706001387C1621396270032
:1040E000329708C3A5079D8B1387C1E72380F6008D
:1040F000834607006396D700A5079D8B2300F70032
:104100008280EFC2EF8E41112A840305040011C59D
:104110002EC682950504B245CDBF41016FC08F8F79
:10412000EFC28F8AAE89AA84930A2002615B9DCC7C
:1041300083AB440061499387018183D7070033D45F
:104140002B416204858B618491CB630654019307F4
:10415000C0056315F4001305C005829919C02285B6
:1041600082996119E31969FD8440D1B76FC04F8905
:10417000EFC20F884841EFF0BFFA6FC0AF89EFC2BE
:104180002F8713870181035707002A89AE84058B87
:104190001384018101C7130520028295032549007C
:1041A000A685EFF0FFF783570400858B81C71305C1
:1041B000200282946FC00F86EFC28F8383A7018392
:1041C00041119443B337D50093C7170013972700C5
:1041D00093878182BA979C43637DD50012053E95F3
:1041E000004105040305F4FF19C52EC68295B245AA
:1041F000CDBF158DE5B741016FC0CF81EFB2BFFDD7
:10420000935725001314E5012E8A5D8C1949B78454
:104210001A06930980023355940262056185EFF016
:104220006FF309C97D19029A33749402B3C434033D
:10423000E31309FE6FB07FFDEFB29FFB41112A84AB
:1042400005040305F4FF09C52EC68295B245CDBF0E
:1042500041016FB03FFCEFB21FF889474111AA84BA
:1042600037040080638BF500C14737040010638674
:10427000F50037D49A3B130404A0814725498549AA
:1042800033D7840263F5840099E363103403137514
:10429000F70F6367E9021305050362052EC632C4F2
:1042A00061850296B24522468547B3F484023357AE
:1042B000B4026375B40041016FB03FF53A84C9B7E9
:1042C00013057505D9BFEFB2BFF24841373600007C
:1042D000138401E71306263323000400EFF0BFF731
:1042E000034504006FB01FF3EFB29FF041112A8421
:1042F0002E8663480500A945EFF0FFF541016FB038
:104300007FF11305D0022EC68295330580403246D8
:10431000DDB7EFB25FEC2A842E8A19C11C41BDCBF8
:104320009384C1E483A90400EF709014EF707019B6
:10433000D2852A892285EFF06FB7EF709018373455
:1043400000003309254137A503009305644913058F
:10435000859CEFF07FEE8840930564493305354135
:10436000EFF09FF837A50300930564491305059DF9
:10437000EFF09FEC930564494A85EFF0FFF637A50F
:104380000300930564491305059EEFF0FFEA01451C
:104390006FB0BFE7EFF08FB1DDBFEFB27FE583D73E
:1043A000018141112A84858B81EB1315840161857C
:1043B000829541016FB01FE6130530022EC682952B
:1043C000B2451305C005829593070002B24563E626
:1043D0008702B7A403009384440E01CC26852EC621
:1043E000EFD0424405057D14AA941374F40FB2452E
:1043F000EDB72685EFF05FE46DBF9307E007E3F6C6
:1044000087FA2285EFF05FEE6DB7EFB2FFDBAE8487
:104410002A84EF303245EF30C211EFA0B25DAA8995
:10442000154533053541EF90326DB7A703002A8655
:10443000AE8603A507EC83A547ECEF30423BEF9037
:104440003265EFA05261A285EFA04275EFA0F2792C
:10445000EF20526CEF90D263B7470F009387072489
:104460002A846316F500616485091304046A814A8D
:1044700063D309021305000382941305E0028294BA
:10448000014913CAF9FF63574901130500038294D8
:104490000509D5BF854A616A0149130A0A6AA94B11
:1044A0001D4B334544031305050362056185829462
:1044B0003364440315E0639F0A0063573901130511
:1044C000000382940509D5BF1305E0028294130509
:1044D000000382946FB0DFD2639629011305E002D6
:1044E0008294854A0509334A7A03E31C69FBDDB7E8
:1044F000EFB27FCEAE84AA852A84EFA0F24B09C921
:1045000037A50300A685130585A8EFF0FFD211A8F3
:10451000930500002285EFA0825111E513050003E9
:1045200082946FB09FCEB7A7030083A9C7A61319C3
:10453000140013591900CE854A85EFA0F24709ED02
:10454000CE854A85EFA0C25C6358A00037A5030062
:10455000A6851305C5A855BF930500002285EFA0C9
:10456000225B635805001305D0028294B7070080D0
:104570003D8C2285EFA07267B7A7030003A687A72B
:1045800083A6C7A72A8AAE8AEF900202634C050071
:10459000B7A7030083A507A722850149EFA0E24E34
:1045A000634905042285EF30321AEFA01264B7A7E1
:1045B000030003A607A883A647A8EF803212EF20C6
:1045C000F23FEF90F24C2A89EF901253B7A7030005
:1045D0002A86AE8603A507EC83A547ECEF3022219F
:1045E0002A86AE865285D685EF80520FEFA0B26A3A
:1045F0002A84A6852285EFF05FE1E30409F2130522
:1046000050068294A6854A85EFF01FCE19BFEFB2FF
:104610003FBEAA87294582976FB0DFBF0387A1E617
:10462000A9476309F700EFB2BFBCAA872945829763
:104630006FB05FBE8280EFB2BFBB37340000AA8488
:10464000130564492E89EFF07FFD37A5030093051C
:104650006449130585C0EFF03FBE03C7C1E783C7B8
:10466000D1E76306F70013050002EFE0DFE2EF0099
:10467000D01037A50300930564491305C59DEFF0DD
:10468000BFBBB70790D08D076383F4021305700298
:10469000EFE07FE0930564492685EF00900813055D
:1046A0007002EFE05FDF13050002EFE0DFDE93054D
:1046B00064494A85EFF05FB86FB0DFB5EFB25FB322
:1046C00083D7018193F7070891E7EFF0DFF62945DB
:1046D000EFE07FDCEFE03FEAEFB29FB103A741E4F8
:1046E000B70724F4AA85BA9713972700F98333658F
:1046F000F700EFF0BFFCEFB21FAEAA8929452E8963
:104700003284B7340000EFE01FD913866449930563
:1047100000021145EFF00FCC938564494E85EFF010
:104720001FA62945EFE03FD71305540013866449BF
:10473000930500021375F50FEFF0CFC91305E005DF
:10474000EFE07FD54A85EFF03FF99387C1E49843C6
:1047500019EBEFB2FFA937A50300130585BA23A211
:1047600001E4EFF07FF7938681E488427D1798C3D8
:10477000504190C28280EFB2BFA72A84EFF0FFFCC5
:10478000194718C140C16FB0FFA8EFB27FA603A5BB
:10479000C1E4EFF05FFE6FB0FFA7EFB27FA5EF704F
:1047A0004052EFF05FFD6FB0FFA6EFB27FA42A8406
:1047B000EFF0BFF9314718C140C16FB0BFA5084144
:1047C00009C51841B147630BF700EFB27FA248411A
:1047D000EFA07228EFF07FFD6FB0DFA38280EFB211
:1047E0003FA12A84EFF07FF6294718C140C16FB07E
:1047F0007FA2EFB2FF9F41112A842EC6EFF0FFF493
:10480000B24500C14CC141016FB0DFA0EFB2BF9C07
:1048100013D415408547AA8432896317F402894767
:10482000631AF500EFF07FF22320250123222501F2
:104830006FB0BF9D0145E39D84FEEFF01FF1232083
:10484000250123220500EDB7A2856341850222855B
:10485000753FA285AA894A8633858440453F2A84CC
:10486000EFF0BFEE2320350140C1D9B745372A8488
:10487000EFF0BFED00C1F1B7EFB29F9741112A846D
:104880002EC6EFF09FECB24500C1232205009C41EB
:10489000C8C388C141016FB0FF97EFB27F955C41FB
:1048A00004418043EFF07FEA04C140C16FB09F969E
:1048B000EFB27F92EFF07FE983A441E52A842320C1
:1048C0000500232205002A8999CC9C4083A9070072
:1048D000EFF0BFE723220500232035012322A900A2
:1048E000C4402A89D5B748406FB03F92EFB25F907D
:1048F0002A84EFF09FE5094718C140C16FB09F912E
:1049000083A74181B70608002A87BE9609468C43D3
:104910003E856395C500CC43638CE500A107E39811
:10492000D7FEEFB2FF8C3A85EFF05FFC6FB09F8E41
:104930008280EFB2FF8B2A89370590D01305B5042A
:10494000EFF01FFCAA84EFF05FE023202501232273
:1049500005002A84EFF07FDF04C140C16FB09F8B58
:10496000EFB21F8941112EC62A84EFF01FDEB24537
:10497000220421474D8C18C140C141016FB09F896D
:10498000EFB21F87EFF07FDC494718C123220500F3
:104990006FB05F88EFB2DF85EFF09FFE23ACA1E43C
:1049A00023A0A1E66FB01F87EFB29F849841AE8429
:1049B0001374F50F5C4381EFEFF03FD99C40C8C3FF
:1049C00093178401232005005CC188C039A0939609
:1049D000870091E64204C18F5CC36FB0BF8393969A
:1049E0000701C18299E22204FDB793F6F70FE5D6DD
:1049F000EFF0BFD59C4088C3E1B7EFB2CFFD4111C6
:104A0000AE89B2842A89EFF0BFF72A842AC682943D
:104A1000FD576305F5027D5A930AC0056301A9029B
:104A2000630F450163850900631355018294620594
:104A30006C006185EFF05FF78294CDB70144228569
:104A400041016FB08FFCEFB2AFFA938501E6EFF052
:104A5000BFF56FB02FFCEFB20FF841112A84EFF0D1
:104A60007FF3AA8422C6B7590000014411497C0093
:104A7000A29703C50700138669A4A9450504EFF0B2
:104A80008FFD63162401268541016FB00FF81305D1
:104A9000E002EFF05FFBE1BFEFB2EFF341112A84D8
:104AA000EFF01FEEAA842AC69309C005030504008F
:104AB00011CD130914006316350103051400130901
:104AC00024006C00EFF05FEE4A84CDB726854101EB
:104AD0006FB0AFF3EFB22FF003A4418137090800A4
:104AE000AA892299094A1C40A284639A47015C4022
:104AF0008D8B91E7CE852285EFE0DFAE11E92104B1
:104B0000E31324FF4E85EFF03FF98947AA841CC1C7
:104B100026856FB08FEFEFB2AFED37250400130598
:104B200045A6EFF03FFBAA84EFF03FC22A8404C100
:104B30002322050013850189EFF0DFF92A89EFF0C0
:104B4000DFC0AA842320250140C137B50300130527
:104B50004513EFF03FF82A89EFF03FBF2A84232066
:104B6000250144C137B5030013050519EFF09FF681
:104B70002A89EFF09FBDAA842320250140C1138517
:104B80008189EFF03FF52A89EFF03FBC2A8423208A
:104B9000250144C137B5030013054514EFF09FF319
:104BA000AA84EFF09FBA04C140C16FB0AFE6EFB284
:104BB0002FE4AA84EFF0DFDCC4402A842A8985C070
:104BC000EFF0BFB85C402320050099E748C0DC4007
:104BD0002A8984405CC1E5B72320A900CDBF228586
:104BE0006FB04FE3EFB2CFE02A84814411CC22852D
:104BF000EFE0FFCC19E537250400130505BCEFF005
:104C0000BFAD40408504DDB726856FB0AFE0EFB2A1
:104C10008FDC2A892E8AAA84054499CC9C40DC43E7
:104C200063D8070037A50300130505EAEFF0DFAAF4
:104C30003304F402C440D5B701CE832709007D04B4
:104C40001580C8433305A040EFF0FFB22320A90030
:104C5000EFF0BFAFB9471CC1AA8911C82285EFE0A8
:104C60007FF1AA8552862285EFF05FBAAA84EFF021
:104C7000DFAD04C12322250123A2A9004E856FB018
:104C8000CFD8EFB24FD59C424111AA8903A9470062
:104C90002E8AB68A330B2603BA8401446353240553
:104CA000B305640126852EC6EFE03FBDB24519E588
:104CB00037A50300130505A9EFF01FA283A64A003C
:104CC000984099EA52864E853AC6EFE09FED32470A
:104CD00018C1C4400504D9B72E864E85D2855537F4
:104CE000CDBF41016FB06FD2EFB20FCE2A8BAE8A2B
:104CF0002E84014A854401498149635F6A05228502
:104D0000EFE0FFBB19E537A50300130505A9EFF098
:104D1000BF9C2285EFF01FEDAA8B63930902EFF091
:104D20009FA52A89EFF07FA22320250123220500D9
:104D30002A89B384740311C00040050AAA8975BF8B
:104D4000EFF07FA32A8CEFF05FA0232085012322C0
:104D5000050023A2A900F1BF014681454A85EFF075
:104D60001FEB5687CA860146A6852A84EFF07FF19D
:104D700022856FB0EFC8EFB2AFC44111AA8402958B
:104D800062056185814D014493090002294AB54AB3
:104D9000254B0549930B2002130C3002930C700233
:104DA0006308350763064507630455076302650713
:104DB0009377F50F138787FD1377F70F637AE9046D
:104DC000630875056306850563049505938707FDEC
:104DD00093F7F70F6378F90037A503001305858073
:104DE000EFF09F8F130505FDEFF0FF982AC6EFF057
:104DF000DF95B247232205002A8D1CC101C823A2DA
:104E0000AD00829462056185EA8D59BF2A84D5BFC1
:104E1000A384A1E62285EFF0FFDCAA84EFF0BF9522
:104E2000AA89EFF09F922A892320350123220500C9
:104E30000145EFF05F94AA8505464A85EFF03FDD16
:104E4000FD04AA8995800149854A0DCC93555940A6
:104E500026864E85EFE0FFD414411377F9012A8AA4
:104E6000C8421440B397EA0093C7F7FFE98FC842DE
:104E700005093315E5005D8DEFF0FF8F2320AA00B3
:104E80004040E1B74E8541016FB04FB7EFB24FB62A
:104E900037A5030013054595EFF01F84EFB24FB51A
:104EA000B707DC0B41116368F50037950300130564
:104EB000056DEFF07F822EC6EFF0EF8CB245935771
:104EC00035409D8B63D7F50037A50300130505FF1B
:104ED000CDB71D899D476309F5006357B50037A518
:104EE00003001305050DF1B741016FB0AFB2EFB28A
:104EF0002FB0EFF03FCFAA8503A541E4EFF01FFAF2
:104F00006FB04FB1038791E69307E007631AF7008C
:104F1000EFB20FAE379503001305856CEFF0CFFBB2
:104F20008280EFB2EFAC1377350009E7EFF04F9FC7
:104F30006FB04FAE135725009317E501D98F378710
:104F4000234363F8E70037A503001305C5BBEFF063
:104F5000AFF8370724F463E8E7003705DC0B3E952C
:104F6000EFF08FA5F1B7EFF06FA9D9B7EFB24FA867
:104F70004841EFF01FFB6FB0EFA9EFB2CFA503C719
:104F8000C1E783C7D1E71389C1E79389D1E76306F6
:104F9000F7001305B005EFE00FD08347090003C405
:104FA000090085441D8C2104A1473364F402138A4F
:104FB000C162B73A000037AB030083C709006347FB
:104FC0009402858F9D8B8A07D2978843EFF01F92BA
:104FD00093856A49EFF09FF96388840093856A4955
:104FE00013050B93EFF04FA58504C1BF03470900DC
:104FF0006306F7001305D005EFE0EFC96FB0EFA02F
:10500000EFB20F9F37A5030013054595EFF0CFECE6
:10501000EFB20F9EAA841305C0032E848295DC4054
:10502000A285A18713972700B7A70300938747FDA1
:10503000BA978843EFF04FA037A50300A285130568
:1050400005BBEFF06F9F03C54400A285EFF0CFA929
:105050001305E00302946FB0EF9BEFB26F9909E97B
:10506000379503001305C57EEFF00F9D6FB08F9A43
:105070002A84AE84EFE0BF841C4005C1C1453E8553
:10508000EFE09F9CA68511C5379503001305056EBB
:10509000E1BF2285EF40700DD1BF19476397E7004C
:1050A0004840A685EFF04FA4D1B731476397E7009A
:1050B0004840A685EFF0CFC355BF0947639DE70081
:1050C0005840B70790D0AD07E302F7FAA6852285CE
:1050D000EFF0DFE961BF29476398E700034544002B
:1050E000A685EFF08FAB59B749476397E700A685D0
:1050F0002285EFF0CF889DBF39476397E700A685EB
:105100002285EF2020449DB721476397E700A685BD
:105110002285EFF0FFEF99BF379503001305C56EA9
:10512000EFF08FDBEFB2CF8C83D70181411193F782
:1051300007089DE732C6EFF00FD01305A003EFE09C
:105140008FB513050002EFE00FB53246B73500000A
:10515000938565493285EFF05FF02945EFE0AFB305
:10516000EFE06FC1EFB2CF8803A741E4B70724F4A3
:105170002E86BA9713972700F983AA853365F7001F
:10518000EFF05FFAEFB22F85130101992AC668008C
:10519000EFE0AFDE2A8437A50300130585ECEFB0FE
:1051A000624BB24537AA0300D5C99841C94763117C
:1051B000F70A054693050AC313050144EFC05F8C47
:1051C00019C53795030013054506EFF0EFD0130519
:1051D0002003EFE07FB432452C08EFE09FA9AA85B9
:1051E0002946280CEFC09F8F11C537A50300130572
:1051F00005EEE1BF02C6B245280CEFE04FE283A501
:105200004181280C8144EFE08FE1A285280CEFE07A
:105210000FE183A541E5280C93894181EFE02FE060
:1052200083A501E5280CEFE08FDF6385840603A9E1
:10523000090093973400280C3E99832509008504C2
:10524000EFE0EFDD83254900280CEFE04FDDF1BFF3
:105250002E852EC4EFE0AFE6A2451DC50546930599
:105260000AC313050144EFC0BF8121FD13052003CC
:10527000EFE09FAAB7A503002946938505F1280C06
:10528000EFC0DF852DD995B737A50300130585F449
:10529000EFF05FED37A503001305C5F1EFB022571E
:1052A000280CEFC07FDF19E5014693050AC3EFC064
:1052B0002FFD11C17D542285130101676FA0FFF4FA
:1052C000EFA27FF11301019AB7A903002A840546D2
:1052D000938509C313050143EFC08FFA45E9130510
:1052E0002003EFE07FA30DC41840C9476318F702FD
:1052F0002C002285EFE0FF970546AA852804EFC021
:10530000EFFD05C537A503001305C5E6EFF0CFBCDB
:10531000B7A503000546938505F1CDB737A5030072
:10532000A285130585F4EFF0FFE32804EFE0AFD08A
:105330002804EFE04FD003A4418113894181098CF7
:105340002804EFE04FCF2A8A2804EFE0CFCE229541
:1053500023AAA1E42804EFE00FCE229523A8A1E41C
:10536000014463018A02832409009317340028044E
:10537000BE94EFE04FCC88C02804EFE0CFCBC8C08C
:105380000504C5B72804EFC03FD119C17D5411A849
:105390000146938509C3EFC0AFEE6DF98145EFE09B
:1053A000EFB02285130101666FA03FE6EFA25FE434
:1053B00011C10841EFF0DFF0EFF0EFBB6FA09FE508
:1053C000EFA21FE32A84EFE08FC81DE1B71700208A
:1053D0001387077B14439387077B95C654439DC26D
:1053E000184715CF37A50300130545A3EFF0CFAE3F
:1053F0002285EFF0AFCFAA8537A50300130505A5D9
:10540000EFF05FD605450A05AA9780C3B7170020BD
:105410009387477A3E95232005006FA0BFDF09459B
:10542000DDB7B71700209386077B90429387077BF1
:105430006303C502D0426306C50294466305D502E4
:10544000EFA21FDBEFF08FCAAA8537A50300130573
:10545000C5BFEFF03FD101470A07BA9723A0070065
:1054600082800547D5BF0947C5BF09C5184199477F
:10547000630BF700EFA2DFD7AA8537B5030013054A
:105480008511EFF03FCE48418280EFA27FD60841E0
:10549000EFF0BFFD058909C503A581E96FA09FD77E
:1054A0000145EDBFEFA2DFD40841EFF01FFC0589F5
:1054B00009E503A581E96FA0FFD50145EDBFEFA286
:1054C0003FD30841EFF07FFA1375F50FEFF02FB1DE
:1054D0006FA05FD4EFA2DFD12A84FD5419C4084025
:1054E000EFF0BFF8E98C4040D5BF2685EFF0AFA8BC
:1054F0006FA05FD2EFA2DFCF2A84814419C4084095
:10550000EFF0BFF6C98C4040D5BF2685EFF0AFA6BF
:105510006FA05FD0EFA2DFCD2A84814419C4084078
:10552000EFF0BFF4A98C4040D5BF2685EFF0AFA4C3
:105530006FA05FCEEFA2DFCB0841EFF01FF3134562
:10554000F5FFEFF04FA36FA0FFCCEFA27FCAAA84B4
:105550000841EFF09FF1DC402A848843EFF0FFF030
:10556000634805003315A400EFF0EFA06FA09FCAB9
:105570003305A0403355A440C5BFEFA27FC72A849E
:105580000841EFF09FEE5C408843EFF01FEE0145CD
:105590006FA05FC8EFA2DFC50041EF60606DEF60F4
:1055A00040722A892285EFF05FECAA84EFF09F9584
:1055B000EF60207133052541E36A95FE22856FA0D7
:1055C0007FC5EFA2FFC200412285EFF01FEAEFE0A6
:1055D0006FFC22856FA01FC4EFA29FC1AA8509C5D9
:1055E000184199476308F70037B503001305851183
:1055F000EFF05FB748419377E5FF91C737A5030008
:1056000013050585F5B76FA0FFC0EFA27FBEAA8581
:1056100009CD1C4119476397E7004841EF90B24319
:105620006FA05FBF31476388E70037A5030013050C
:1056300005F8EFF03FB34841E5B7EFA27FBB2A84FE
:10564000AE8419C80840EFF05FFCAA852685EF807C
:10565000525CAA844040F5B72685EFF00F956FA005
:105660007FBBEFA2FFB82A84AE8419C80840EFF0D0
:10567000DFF9AA852685EF90A27BAA844040F5B782
:105680002685EFF08F926FA0FFB8EFA27FB62A8435
:10569000AE8419C80840EFF05FF7AA852685EF9021
:1056A000E24FAA844040F5B72685EFF00F906FA037
:1056B0007FB6EFA2FFB32A84AE841DC40840EFF08A
:1056C000DFF4930500002A89EF90623619E537B5BB
:1056D00003001305C517EFF02F802685CA85EF90CC
:1056E000E209AA844040D1BF2685EFF00F8C6FA05D
:1056F0007FB2EFA25FAE00415C412E8988431DCC92
:105700001C401947639CE70215C918416318F7024A
:105710005C4199E737B503001305C517EFE0DFFBE0
:1057200058403365F70299C57D8393D6F70163032B
:10573000D7003E95EFF02F846FA03FADEFF0FFEC68
:1057400093050000AA84EF90822E69D52285EFF0A0
:10575000DFEBA685AA89EF2022722A84630609025C
:10576000930500004E85EF90A23A1359F501930579
:1057700000002685EF90C2397D81630725012285CF
:10578000A685EF8012492A842285EFF00F826DB73B
:10579000EFA21FA68545EFF0DFF56FA0BFA7EFA230
:1057A0003FA58145EFF0FFF46FA0DFA6EFA2DFA1D8
:1057B000044103294500AE89328AB68A194B630435
:1057C000090A03240900B1C09C406390670515CC09
:1057D0001C40639C670363990900D8405C40635593
:1057E000F70001456FA0DFA163960A00D8405C4036
:1057F000E309F7FE63060A0003294900A284C1B742
:10580000D8405C40E3DAE7FEE9BF63800904639EA9
:105810000A002685EFF07FDFAA8B2285EFF0FFDEFE
:10582000AA855E85EF90A2204DDDE3170AFC268550
:10583000EFF0BFDDAA842285EFF03FDDAA85268543
:10584000EF90A224E35AA0FA69BF2685EFF0FFDBB0
:10585000AA8B2285EFF07FDBAA855E85EF90422B35
:10586000E35705FABDBF03A581E9ADBFEFA25F987D
:10587000854601468145EFF07FF36FA0BF99EFA207
:105880003F97814601468545EFF05FF26FA09F98F4
:10589000EFA21F96854601468545EFF03FF16FA0C8
:1058A0007F97EFA2FF94814605468145EFF01FF0F8
:1058B0006FA05F96EFA2DF93854605468145EFF026
:1058C000FFEE6FA03F95EFA21F9100410329450015
:1058D0009949630209048324090011CC1C40639C8C
:1058E000370191C89C4063983701D8405C4063D130
:1058F000E702268431A82685EFF03FD12A8A228547
:10590000EFF0BFD0AA855285EF902218E343A0FEA6
:10591000032949007DBF22856FA03F8FEFA2BF8B77
:1059200000410329450099496302090483240900C1
:1059300011CC1C40639C370191C89C40639837018F
:10594000D8405C406351F702268431A82685EFF0E9
:10595000DFCB2A8A2285EFF05FCBAA855285EF90B4
:10596000221BE34305FE032949007DBF22856FA06A
:10597000DF89EFA25F862A84194A21CC032904001B
:10598000832944006385090483A409006302090292
:1059900083270900639E470181CC9C40639A47019D
:1059A00003274900DC406301F70283A94900D9BFFE
:1059B0004A85EFF09FC5AA8A2685EFF01FC5AA8504
:1059C0005685EF90C20675F101456FA01F844040D7
:1059D0006DB703A581E9D5BFEFA29F810841EFF024
:1059E000DFC2EF10D241EFE05FDC6FA0BF82EFA219
:1059F0003F800841EFF07FC1EF10722BEFE0FFDA3C
:105A00006FA05F81EFA2CFFE0841EFF01FC0EF1043
:105A10007247EFE09FD96FA0EFFFEFA26FFD084143
:105A2000EFF0BFBEEF20421BEFE03FD86FA08FFE2C
:105A3000EFA20FFC0841EFF05FBDEF20A20DEFE0F9
:105A4000DFD66FA02FFDEFA2AFFA5C4141110041FC
:105A50008DC38843EFF07FBBAA8522852EC6EFF069
:105A6000DFBAB245EF208223EFE03FD441016FA0BF
:105A70006FFAB7A7030083A5C7B8C5B7EFA24FF762
:105A80000841EFF09FB8EF20226FEFE01FD26FA028
:105A90006FF8EFA2EFF50841EFF03FB7EF2042209B
:105AA000EFE0BFD06FA00FF7EFA28FF40841EFF047
:105AB000DFB5EF10B242EFE05FCF6FA0AFF5EFA21E
:105AC0002FF30841EFF07FB4EF20022AEFE0FFCD83
:105AD0006FA04FF4EFA2CFF10841EFF01FB3EF201A
